{
  "_format": "hh-sol-artifact-1",
  "contractName": "TokenizedBallot",
  "sourceName": "contracts/TokenizedBallot.sol",
  "abi": [
    {
      "inputs": [
        {
          "internalType": "bytes32[]",
          "name": "_proposalNames",
          "type": "bytes32[]"
        },
        {
          "internalType": "address",
          "name": "_tokenContract",
          "type": "address"
        },
        {
          "internalType": "uint256",
          "name": "_targetBlockNumber",
          "type": "uint256"
        }
      ],
      "stateMutability": "nonpayable",
      "type": "constructor"
    },
    {
      "inputs": [],
      "name": "getNumOfProposals",
      "outputs": [
        {
          "internalType": "uint256",
          "name": "length",
          "type": "uint256"
        }
      ],
      "stateMutability": "view",
      "type": "function"
    },
    {
      "inputs": [],
      "name": "getNumOfVoteRecords",
      "outputs": [
        {
          "internalType": "uint256",
          "name": "length",
          "type": "uint256"
        }
      ],
      "stateMutability": "view",
      "type": "function"
    },
    {
      "inputs": [
        {
          "internalType": "uint256",
          "name": "",
          "type": "uint256"
        }
      ],
      "name": "proposals",
      "outputs": [
        {
          "internalType": "bytes32",
          "name": "name",
          "type": "bytes32"
        },
        {
          "internalType": "uint256",
          "name": "voteCount",
          "type": "uint256"
        }
      ],
      "stateMutability": "view",
      "type": "function"
    },
    {
      "inputs": [],
      "name": "targetBlockNumber",
      "outputs": [
        {
          "internalType": "uint256",
          "name": "",
          "type": "uint256"
        }
      ],
      "stateMutability": "view",
      "type": "function"
    },
    {
      "inputs": [],
      "name": "tokenContract",
      "outputs": [
        {
          "internalType": "contract IMyToken",
          "name": "",
          "type": "address"
        }
      ],
      "stateMutability": "view",
      "type": "function"
    },
    {
      "inputs": [
        {
          "internalType": "uint256",
          "name": "proposal",
          "type": "uint256"
        },
        {
          "internalType": "uint256",
          "name": "amount",
          "type": "uint256"
        }
      ],
      "name": "vote",
      "outputs": [],
      "stateMutability": "nonpayable",
      "type": "function"
    },
    {
      "inputs": [
        {
          "internalType": "uint256",
          "name": "",
          "type": "uint256"
        }
      ],
      "name": "voteHistory",
      "outputs": [
        {
          "internalType": "address",
          "name": "voter",
          "type": "address"
        },
        {
          "internalType": "uint256",
          "name": "voteCount",
          "type": "uint256"
        },
        {
          "internalType": "bytes32",
          "name": "proposal",
          "type": "bytes32"
        },
        {
          "internalType": "uint256",
          "name": "blockNumber",
          "type": "uint256"
        }
      ],
      "stateMutability": "view",
      "type": "function"
    },
    {
      "inputs": [
        {
          "internalType": "address",
          "name": "",
          "type": "address"
        }
      ],
      "name": "votedAmount",
      "outputs": [
        {
          "internalType": "uint256",
          "name": "",
          "type": "uint256"
        }
      ],
      "stateMutability": "view",
      "type": "function"
    },
    {
      "inputs": [],
      "name": "winnerName",
      "outputs": [
        {
          "internalType": "bytes32",
          "name": "winnerName_",
          "type": "bytes32"
        }
      ],
      "stateMutability": "view",
      "type": "function"
    },
    {
      "inputs": [],
      "name": "winningProposal",
      "outputs": [
        {
          "internalType": "uint256",
          "name": "winningProposal_",
          "type": "uint256"
        }
      ],
      "stateMutability": "view",
      "type": "function"
    }
  ],
  "bytecode": "0x60806040523480156200001157600080fd5b5060405162001091380380620010918339818101604052810190620000379190620003ca565b816000806101000a81548173ffffffffffffffffffffffffffffffffffffffff021916908373ffffffffffffffffffffffffffffffffffffffff160217905550806002819055506002544311620000c5576040517f08c379a0000000000000000000000000000000000000000000000000000000008152600401620000bc90620004a6565b60405180910390fd5b60005b83518110156200015c5760016040518060400160405280868481518110620000f557620000f4620004c8565b5b6020026020010151815260200160008152509080600181540180825580915050600190039060005260206000209060020201600090919091909150600082015181600001556020820151816001015550508080620001539062000526565b915050620000c8565b5050505062000573565b6000604051905090565b600080fd5b600080fd5b600080fd5b6000601f19601f8301169050919050565b7f4e487b7100000000000000000000000000000000000000000000000000000000600052604160045260246000fd5b620001ca826200017f565b810181811067ffffffffffffffff82111715620001ec57620001eb62000190565b5b80604052505050565b60006200020162000166565b90506200020f8282620001bf565b919050565b600067ffffffffffffffff82111562000232576200023162000190565b5b602082029050602081019050919050565b600080fd5b6000819050919050565b6200025d8162000248565b81146200026957600080fd5b50565b6000815190506200027d8162000252565b92915050565b60006200029a620002948462000214565b620001f5565b90508083825260208201905060208402830185811115620002c057620002bf62000243565b5b835b81811015620002ed5780620002d888826200026c565b845260208401935050602081019050620002c2565b5050509392505050565b600082601f8301126200030f576200030e6200017a565b5b81516200032184826020860162000283565b91505092915050565b600073ffffffffffffffffffffffffffffffffffffffff82169050919050565b600062000357826200032a565b9050919050565b62000369816200034a565b81146200037557600080fd5b50565b60008151905062000389816200035e565b92915050565b6000819050919050565b620003a4816200038f565b8114620003b057600080fd5b50565b600081519050620003c48162000399565b92915050565b600080600060608486031215620003e657620003e562000170565b5b600084015167ffffffffffffffff81111562000407576200040662000175565b5b6200041586828701620002f7565b9350506020620004288682870162000378565b92505060406200043b86828701620003b3565b9150509250925092565b600082825260208201905092915050565b7f54617267657420626c6f636b206d75737420626520696e207468652070617374600082015250565b60006200048e60208362000445565b91506200049b8262000456565b602082019050919050565b60006020820190508181036000830152620004c1816200047f565b9050919050565b7f4e487b7100000000000000000000000000000000000000000000000000000000600052603260045260246000fd5b7f4e487b7100000000000000000000000000000000000000000000000000000000600052601160045260246000fd5b600062000533826200038f565b91507fffffffffffffffffffffffffffffffffffffffffffffffffffffffffffffffff8203620005685762000567620004f7565b5b600182019050919050565b610b0e80620005836000396000f3fe608060405234801561001057600080fd5b506004361061009e5760003560e01c8063609ff1bd11610066578063609ff1bd14610161578063b384abef1461017f578063d328e84d1461019b578063db069ba5146101b9578063e2ba53f0146101e95761009e565b8063013cf08b146100a357806312b1d5ac146100d457806325e6dfd9146101075780632a8cd29e1461012557806355a373d614610143575b600080fd5b6100bd60048036038101906100b891906106a3565b610207565b6040516100cb9291906106f8565b60405180910390f35b6100ee60048036038101906100e991906106a3565b61023b565b6040516100fe9493929190610762565b60405180910390f35b61010f61029b565b60405161011c91906107a7565b60405180910390f35b61012d6102a8565b60405161013a91906107a7565b60405180910390f35b61014b6102ae565b6040516101589190610821565b60405180910390f35b6101696102d2565b60405161017691906107a7565b60405180910390f35b6101996004803603810190610194919061083c565b61035a565b005b6101a361060f565b6040516101b091906107a7565b60405180910390f35b6101d360048036038101906101ce91906108a8565b61061c565b6040516101e091906107a7565b60405180910390f35b6101f1610634565b6040516101fe91906108d5565b60405180910390f35b6001818154811061021757600080fd5b90600052602060002090600202016000915090508060000154908060010154905082565b6004818154811061024b57600080fd5b90600052602060002090600402016000915090508060000160009054906101000a900473ffffffffffffffffffffffffffffffffffffffff16908060010154908060020154908060030154905084565b6000600480549050905090565b60025481565b60008054906101000a900473ffffffffffffffffffffffffffffffffffffffff1681565b6000806000905060005b6001805490508110156103555781600182815481106102fe576102fd6108f0565b5b9060005260206000209060020201600101541115610342576001818154811061032a576103296108f0565b5b90600052602060002090600202016001015491508092505b808061034d9061094e565b9150506102dc565b505090565b60008060009054906101000a900473ffffffffffffffffffffffffffffffffffffffff1673ffffffffffffffffffffffffffffffffffffffff16633a46b1a8336002546040518363ffffffff1660e01b81526004016103ba929190610996565b602060405180830381865afa1580156103d7573d6000803e3d6000fd5b505050506040513d601f19601f820116820180604052508101906103fb91906109d4565b90508082600360003373ffffffffffffffffffffffffffffffffffffffff1673ffffffffffffffffffffffffffffffffffffffff168152602001908152602001600020546104499190610a01565b111561048a576040517f08c379a000000000000000000000000000000000000000000000000000000000815260040161048190610ab8565b60405180910390fd5b81600360003373ffffffffffffffffffffffffffffffffffffffff1673ffffffffffffffffffffffffffffffffffffffff16815260200190815260200160002060008282546104d99190610a01565b9250508190555081600184815481106104f5576104f46108f0565b5b906000526020600020906002020160010160008282546105159190610a01565b92505081905550600460405180608001604052803373ffffffffffffffffffffffffffffffffffffffff1681526020018481526020016001868154811061055f5761055e6108f0565b5b906000526020600020906002020160000154815260200143815250908060018154018082558091505060019003906000526020600020906004020160009091909190915060008201518160000160006101000a81548173ffffffffffffffffffffffffffffffffffffffff021916908373ffffffffffffffffffffffffffffffffffffffff1602179055506020820151816001015560408201518160020155606082015181600301555050505050565b6000600180549050905090565b60036020528060005260406000206000915090505481565b600060016106406102d2565b81548110610651576106506108f0565b5b906000526020600020906002020160000154905090565b600080fd5b6000819050919050565b6106808161066d565b811461068b57600080fd5b50565b60008135905061069d81610677565b92915050565b6000602082840312156106b9576106b8610668565b5b60006106c78482850161068e565b91505092915050565b6000819050919050565b6106e3816106d0565b82525050565b6106f28161066d565b82525050565b600060408201905061070d60008301856106da565b61071a60208301846106e9565b9392505050565b600073ffffffffffffffffffffffffffffffffffffffff82169050919050565b600061074c82610721565b9050919050565b61075c81610741565b82525050565b60006080820190506107776000830187610753565b61078460208301866106e9565b61079160408301856106da565b61079e60608301846106e9565b95945050505050565b60006020820190506107bc60008301846106e9565b92915050565b6000819050919050565b60006107e76107e26107dd84610721565b6107c2565b610721565b9050919050565b60006107f9826107cc565b9050919050565b600061080b826107ee565b9050919050565b61081b81610800565b82525050565b60006020820190506108366000830184610812565b92915050565b6000806040838503121561085357610852610668565b5b60006108618582860161068e565b92505060206108728582860161068e565b9150509250929050565b61088581610741565b811461089057600080fd5b50565b6000813590506108a28161087c565b92915050565b6000602082840312156108be576108bd610668565b5b60006108cc84828501610893565b91505092915050565b60006020820190506108ea60008301846106da565b92915050565b7f4e487b7100000000000000000000000000000000000000000000000000000000600052603260045260246000fd5b7f4e487b7100000000000000000000000000000000000000000000000000000000600052601160045260246000fd5b60006109598261066d565b91507fffffffffffffffffffffffffffffffffffffffffffffffffffffffffffffffff820361098b5761098a61091f565b5b600182019050919050565b60006040820190506109ab6000830185610753565b6109b860208301846106e9565b9392505050565b6000815190506109ce81610677565b92915050565b6000602082840312156109ea576109e9610668565b5b60006109f8848285016109bf565b91505092915050565b6000610a0c8261066d565b9150610a178361066d565b9250828201905080821115610a2f57610a2e61091f565b5b92915050565b600082825260208201905092915050565b7f566f74657220646f6573206e6f74206861766520656e6f75676820766f74696e60008201527f6720706f77657200000000000000000000000000000000000000000000000000602082015250565b6000610aa2602783610a35565b9150610aad82610a46565b604082019050919050565b60006020820190508181036000830152610ad181610a95565b905091905056fea2646970667358221220b17bb13a5e3dd33000b950a5fb8927673b8ef6f08670ec41d2b5ade2eaa9c53a64736f6c63430008130033",
  "linkReferences": {},
  "deployedLinkReferences": {}
}